{
  "contractName": "ReviewSystem",
  "abi": [
    {
      "anonymous": false,
      "inputs": [
        {
          "indexed": true,
          "internalType": "uint256",
          "name": "productId",
          "type": "uint256"
        },
        {
          "indexed": true,
          "internalType": "uint256",
          "name": "reviewIndex",
          "type": "uint256"
        },
        {
          "indexed": false,
          "internalType": "bool",
          "name": "agreeWon",
          "type": "bool"
        },
        {
          "indexed": false,
          "internalType": "uint256",
          "name": "totalPayout",
          "type": "uint256"
        }
      ],
      "name": "ChallengeSettled",
      "type": "event"
    },
    {
      "anonymous": false,
      "inputs": [
        {
          "indexed": true,
          "internalType": "uint256",
          "name": "productId",
          "type": "uint256"
        },
        {
          "indexed": true,
          "internalType": "uint256",
          "name": "reviewIndex",
          "type": "uint256"
        },
        {
          "indexed": true,
          "internalType": "address",
          "name": "voter",
          "type": "address"
        }
      ],
      "name": "HelpfulScore",
      "type": "event"
    },
    {
      "anonymous": false,
      "inputs": [
        {
          "indexed": true,
          "internalType": "uint256",
          "name": "id",
          "type": "uint256"
        },
        {
          "indexed": false,
          "internalType": "string",
          "name": "name",
          "type": "string"
        },
        {
          "indexed": false,
          "internalType": "uint256",
          "name": "price",
          "type": "uint256"
        },
        {
          "indexed": true,
          "internalType": "address",
          "name": "seller",
          "type": "address"
        }
      ],
      "name": "ProductListed",
      "type": "event"
    },
    {
      "anonymous": false,
      "inputs": [
        {
          "indexed": true,
          "internalType": "uint256",
          "name": "id",
          "type": "uint256"
        },
        {
          "indexed": true,
          "internalType": "address",
          "name": "buyer",
          "type": "address"
        }
      ],
      "name": "ProductPurchased",
      "type": "event"
    },
    {
      "anonymous": false,
      "inputs": [
        {
          "indexed": true,
          "internalType": "uint256",
          "name": "productId",
          "type": "uint256"
        },
        {
          "indexed": true,
          "internalType": "uint256",
          "name": "reviewIndex",
          "type": "uint256"
        },
        {
          "indexed": true,
          "internalType": "address",
          "name": "challenger",
          "type": "address"
        },
        {
          "indexed": false,
          "internalType": "uint256",
          "name": "stake",
          "type": "uint256"
        },
        {
          "indexed": false,
          "internalType": "uint256",
          "name": "endTime",
          "type": "uint256"
        }
      ],
      "name": "ReviewChallenged",
      "type": "event"
    },
    {
      "anonymous": false,
      "inputs": [
        {
          "indexed": true,
          "internalType": "uint256",
          "name": "id",
          "type": "uint256"
        },
        {
          "indexed": true,
          "internalType": "uint256",
          "name": "productId",
          "type": "uint256"
        },
        {
          "indexed": true,
          "internalType": "address",
          "name": "reviewer",
          "type": "address"
        },
        {
          "indexed": false,
          "internalType": "uint256",
          "name": "stake",
          "type": "uint256"
        }
      ],
      "name": "ReviewPosted",
      "type": "event"
    },
    {
      "anonymous": false,
      "inputs": [
        {
          "indexed": true,
          "internalType": "uint256",
          "name": "productId",
          "type": "uint256"
        },
        {
          "indexed": true,
          "internalType": "uint256",
          "name": "reviewIndex",
          "type": "uint256"
        },
        {
          "indexed": true,
          "internalType": "address",
          "name": "voter",
          "type": "address"
        },
        {
          "indexed": false,
          "internalType": "bool",
          "name": "agree",
          "type": "bool"
        },
        {
          "indexed": false,
          "internalType": "uint256",
          "name": "stake",
          "type": "uint256"
        }
      ],
      "name": "ReviewVoted",
      "type": "event"
    },
    {
      "inputs": [
        {
          "internalType": "uint256",
          "name": "",
          "type": "uint256"
        },
        {
          "internalType": "address",
          "name": "",
          "type": "address"
        }
      ],
      "name": "hasPurchased",
      "outputs": [
        {
          "internalType": "bool",
          "name": "",
          "type": "bool"
        }
      ],
      "stateMutability": "view",
      "type": "function",
      "constant": true
    },
    {
      "inputs": [
        {
          "internalType": "bytes32",
          "name": "",
          "type": "bytes32"
        },
        {
          "internalType": "address",
          "name": "",
          "type": "address"
        }
      ],
      "name": "helpfulGiven",
      "outputs": [
        {
          "internalType": "bool",
          "name": "",
          "type": "bool"
        }
      ],
      "stateMutability": "view",
      "type": "function",
      "constant": true
    },
    {
      "inputs": [],
      "name": "productCount",
      "outputs": [
        {
          "internalType": "uint256",
          "name": "",
          "type": "uint256"
        }
      ],
      "stateMutability": "view",
      "type": "function",
      "constant": true
    },
    {
      "inputs": [
        {
          "internalType": "uint256",
          "name": "",
          "type": "uint256"
        },
        {
          "internalType": "uint256",
          "name": "",
          "type": "uint256"
        }
      ],
      "name": "productReviews",
      "outputs": [
        {
          "internalType": "uint256",
          "name": "id",
          "type": "uint256"
        },
        {
          "internalType": "uint256",
          "name": "productId",
          "type": "uint256"
        },
        {
          "internalType": "address",
          "name": "reviewer",
          "type": "address"
        },
        {
          "internalType": "string",
          "name": "content",
          "type": "string"
        },
        {
          "internalType": "uint256",
          "name": "stake",
          "type": "uint256"
        },
        {
          "internalType": "uint256",
          "name": "helpfuls",
          "type": "uint256"
        },
        {
          "internalType": "bool",
          "name": "challenged",
          "type": "bool"
        },
        {
          "internalType": "bool",
          "name": "removed",
          "type": "bool"
        }
      ],
      "stateMutability": "view",
      "type": "function",
      "constant": true
    },
    {
      "inputs": [
        {
          "internalType": "uint256",
          "name": "",
          "type": "uint256"
        }
      ],
      "name": "products",
      "outputs": [
        {
          "internalType": "uint256",
          "name": "id",
          "type": "uint256"
        },
        {
          "internalType": "string",
          "name": "name",
          "type": "string"
        },
        {
          "internalType": "uint256",
          "name": "price",
          "type": "uint256"
        },
        {
          "internalType": "address payable",
          "name": "seller",
          "type": "address"
        },
        {
          "internalType": "bool",
          "name": "exists",
          "type": "bool"
        }
      ],
      "stateMutability": "view",
      "type": "function",
      "constant": true
    },
    {
      "inputs": [
        {
          "internalType": "address",
          "name": "",
          "type": "address"
        }
      ],
      "name": "roles",
      "outputs": [
        {
          "internalType": "enum ReviewSystem.Role",
          "name": "",
          "type": "uint8"
        }
      ],
      "stateMutability": "view",
      "type": "function",
      "constant": true
    },
    {
      "inputs": [
        {
          "internalType": "string",
          "name": "_name",
          "type": "string"
        },
        {
          "internalType": "uint256",
          "name": "_price",
          "type": "uint256"
        }
      ],
      "name": "listProduct",
      "outputs": [],
      "stateMutability": "nonpayable",
      "type": "function"
    },
    {
      "inputs": [
        {
          "internalType": "uint256",
          "name": "_id",
          "type": "uint256"
        }
      ],
      "name": "purchaseProduct",
      "outputs": [],
      "stateMutability": "payable",
      "type": "function",
      "payable": true
    },
    {
      "inputs": [
        {
          "internalType": "uint256",
          "name": "_productId",
          "type": "uint256"
        },
        {
          "internalType": "string",
          "name": "_content",
          "type": "string"
        }
      ],
      "name": "postReview",
      "outputs": [],
      "stateMutability": "payable",
      "type": "function",
      "payable": true
    },
    {
      "inputs": [
        {
          "internalType": "uint256",
          "name": "_productId",
          "type": "uint256"
        },
        {
          "internalType": "uint256",
          "name": "_reviewIndex",
          "type": "uint256"
        }
      ],
      "name": "giveHelpfulScore",
      "outputs": [],
      "stateMutability": "nonpayable",
      "type": "function"
    },
    {
      "inputs": [
        {
          "internalType": "uint256",
          "name": "_productId",
          "type": "uint256"
        },
        {
          "internalType": "uint256",
          "name": "_reviewIndex",
          "type": "uint256"
        }
      ],
      "name": "challengeReview",
      "outputs": [],
      "stateMutability": "payable",
      "type": "function",
      "payable": true
    },
    {
      "inputs": [
        {
          "internalType": "uint256",
          "name": "_productId",
          "type": "uint256"
        },
        {
          "internalType": "uint256",
          "name": "_reviewIndex",
          "type": "uint256"
        },
        {
          "internalType": "bool",
          "name": "agree",
          "type": "bool"
        }
      ],
      "name": "voteOnChallenge",
      "outputs": [],
      "stateMutability": "payable",
      "type": "function",
      "payable": true
    },
    {
      "inputs": [
        {
          "internalType": "uint256",
          "name": "_productId",
          "type": "uint256"
        },
        {
          "internalType": "uint256",
          "name": "_reviewIndex",
          "type": "uint256"
        }
      ],
      "name": "finalizeChallenge",
      "outputs": [],
      "stateMutability": "nonpayable",
      "type": "function"
    },
    {
      "inputs": [
        {
          "internalType": "uint256",
          "name": "_productId",
          "type": "uint256"
        }
      ],
      "name": "getReviews",
      "outputs": [
        {
          "components": [
            {
              "internalType": "uint256",
              "name": "id",
              "type": "uint256"
            },
            {
              "internalType": "uint256",
              "name": "productId",
              "type": "uint256"
            },
            {
              "internalType": "address",
              "name": "reviewer",
              "type": "address"
            },
            {
              "internalType": "string",
              "name": "content",
              "type": "string"
            },
            {
              "internalType": "uint256",
              "name": "stake",
              "type": "uint256"
            },
            {
              "internalType": "uint256",
              "name": "helpfuls",
              "type": "uint256"
            },
            {
              "internalType": "bool",
              "name": "challenged",
              "type": "bool"
            },
            {
              "internalType": "bool",
              "name": "removed",
              "type": "bool"
            }
          ],
          "internalType": "struct ReviewSystem.Review[]",
          "name": "",
          "type": "tuple[]"
        }
      ],
      "stateMutability": "view",
      "type": "function",
      "constant": true
    },
    {
      "inputs": [
        {
          "internalType": "uint256",
          "name": "_productId",
          "type": "uint256"
        },
        {
          "internalType": "uint256",
          "name": "_reviewIndex",
          "type": "uint256"
        }
      ],
      "name": "getChallenge",
      "outputs": [
        {
          "internalType": "bool",
          "name": "exists",
          "type": "bool"
        },
        {
          "internalType": "uint256",
          "name": "endTime",
          "type": "uint256"
        },
        {
          "internalType": "uint256",
          "name": "agreeStake",
          "type": "uint256"
        },
        {
          "internalType": "uint256",
          "name": "disagreeStake",
          "type": "uint256"
        },
        {
          "internalType": "bool",
          "name": "settled",
          "type": "bool"
        }
      ],
      "stateMutability": "view",
      "type": "function",
      "constant": true
    }
  ],
  "bytecode": "0x608060405234801561001057600080fd5b506120e0806100206000396000f3fe6080604052600436106100e85760003560e01c8063993746421161008a578063dc9da2f811610059578063dc9da2f8146102bf578063e0f6ef87146102fa578063e8e285b41461031e578063f2943dce1461033157600080fd5b8063993746421461022f5780639d4a22551461026c578063b8bca2f714610299578063db487a56146102ac57600080fd5b80636bbe0a3f116100c65780636bbe0a3f1461017357806373f2847f146101be5780637acc0b20146101de57806389a1b5231461020f57600080fd5b80632e8f396d146100ed57806338e76a031461013e5780634e394a9c14610153575b600080fd5b3480156100f957600080fd5b5061010d610108366004611a75565b610365565b60408051951515865260208601949094529284019190915260608301521515608082015260a0015b60405180910390f35b61015161014c366004611a97565b6103dd565b005b34801561015f57600080fd5b5061015161016e366004611a75565b610566565b34801561017f57600080fd5b506101ae61018e366004611acc565b600560209081526000928352604080842090915290825290205460ff1681565b6040519015158152602001610135565b3480156101ca57600080fd5b506101516101d9366004611a75565b6106dd565b3480156101ea57600080fd5b506101fe6101f9366004611a97565b610d65565b604051610135959493929190611b3e565b34801561021b57600080fd5b5061015161022a366004611c22565b610e2b565b34801561023b57600080fd5b5061025f61024a366004611c67565b60006020819052908152604090205460ff1681565b6040516101359190611c9f565b34801561027857600080fd5b5061028c610287366004611a97565b610fb0565b6040516101359190611cc7565b6101516102a7366004611d97565b611119565b6101516102ba366004611dde565b6113f3565b3480156102cb57600080fd5b506101ae6102da366004611acc565b600360209081526000928352604080842090915290825290205460ff1681565b34801561030657600080fd5b5061031060015481565b604051908152602001610135565b61015161032c366004611a75565b611692565b34801561033d57600080fd5b5061035161034c366004611a75565b61191f565b604051610135989796959493929190611e1c565b600080600080600080878760405160200161038a929190918252602082015260400190565b60408051808303601f19018152918152815160209283012060009081526006928390522080546005820154928201546007830154600d9093015460ff9283169d949c50909a509198501695509350505050565b6000818152600260205260409020600301548190600160a01b900460ff166104205760405162461bcd60e51b815260040161041790611e78565b60405180910390fd5b60008281526002602081905260409091209081015434146104755760405162461bcd60e51b815260206004820152600f60248201526e496e636f727265637420707269636560881b6044820152606401610417565b6000838152600360208181526040808420338552909152808320805460ff191660011790559083015490516001600160a01b03909116913491839083908381818185875af1925050503d80600081146104ea576040519150601f19603f3d011682016040523d82523d6000602084013e6104ef565b606091505b50509050806105315760405162461bcd60e51b815260206004820152600e60248201526d14185e5b595b9d0819985a5b195960921b6044820152606401610417565b604051339087907f9ad4ecfaf27ea0cbeebee0ed92fe15c8a84975f1e3d45ccfc526d7751dcf98ff90600090a3505050505050565b6000828152600260205260409020600301548290600160a01b900460ff166105a05760405162461bcd60e51b815260040161041790611e78565b60008381526004602052604081208054849081106105c0576105c0611ea8565b90600052602060002090600702019050600084846040516020016105ee929190918252602082015260400190565b60408051601f19818403018152918152815160209283012060008181526005845282812033825290935291205490915060ff16156106675760405162461bcd60e51b8152602060048201526016602482015275105b1c9958591e481b585c9ad959081a195b1c199d5b60521b6044820152606401610417565b60008181526005602081815260408084203385529091528220805460ff191660019081179091559084018054919290916106a2908490611ed4565b90915550506040513390859087907f1fbce359b65b7443a273600fd9018e4df5ba2e9d5bee94e50cae0d94e4baaf4b90600090a45050505050565b6000828152600260205260409020600301548290600160a01b900460ff166107175760405162461bcd60e51b815260040161041790611e78565b6040805160208082018690528183018590528251808303840181526060909201835281519181019190912060008181526006909252919020805460ff1661078f5760405162461bcd60e51b815260206004820152600c60248201526b4e6f206368616c6c656e676560a01b6044820152606401610417565b600d81015460ff16156107d65760405162461bcd60e51b815260206004820152600f60248201526e105b1c9958591e481cd95d1d1b1959608a1b6044820152606401610417565b80600501544210156108165760405162461bcd60e51b8152602060048201526009602482015268546f6f206561726c7960b81b6044820152606401610417565b600085815260046020526040812080548690811061083657610836611ea8565b6000918252602082206007858101546006870154600d8801805460ff191660011790559190930290910193501080159190610acb578360070154836004015461087f9190611ed4565b90506000846006015485600401546108979190611ed4565b905060005b600b8601548110156109cd57600086600b0182815481106108bf576108bf611ea8565b60009182526020808320909101546001600160a01b0316808352600a8a01909152604082205490925090841561090957846108fa8388611eed565b6109049190611f04565b61090c565b60005b905060006001600160a01b0384166109248385611ed4565b604051600081818185875af1925050503d8060008114610960576040519150601f19603f3d011682016040523d82523d6000602084013e610965565b606091505b50509050806109b65760405162461bcd60e51b815260206004820152601960248201527f416772656520766f746572207061796f7574206661696c6564000000000000006044820152606401610417565b5050505080806109c590611f26565b91505061089c565b50600081156109f657818660040154846109e79190611eed565b6109f19190611f04565b6109f9565b60005b600387015460048801549192506000916001600160a01b0390911690610a20908490611ed4565b604051600081818185875af1925050503d8060008114610a5c576040519150601f19603f3d011682016040523d82523d6000602084013e610a61565b606091505b5050905080610ab25760405162461bcd60e51b815260206004820152601860248201527f4368616c6c656e676572207061796f7574206661696c656400000000000000006044820152606401610417565b50505060068301805461ff001916610100179055610d1c565b83600601548460040154610adf9190611ed4565b9050600084600701548460040154610af79190611ed4565b905060005b600c860154811015610c2d57600086600c018281548110610b1f57610b1f611ea8565b60009182526020808320909101546001600160a01b0316808352600a8a019091526040822054909250908415610b695784610b5a8388611eed565b610b649190611f04565b610b6c565b60005b905060006001600160a01b038416610b848385611ed4565b604051600081818185875af1925050503d8060008114610bc0576040519150601f19603f3d011682016040523d82523d6000602084013e610bc5565b606091505b5050905080610c165760405162461bcd60e51b815260206004820152601c60248201527f446973616772656520766f746572207061796f7574206661696c6564000000006044820152606401610417565b505050508080610c2590611f26565b915050610afc565b5060008115610c565781856004015484610c479190611eed565b610c519190611f04565b610c59565b60005b600286015460048701549192506000916001600160a01b0390911690610c80908490611ed4565b604051600081818185875af1925050503d8060008114610cbc576040519150601f19603f3d011682016040523d82523d6000602084013e610cc1565b606091505b5050905080610d0b5760405162461bcd60e51b815260206004820152601660248201527514995d9a595dd95c881c185e5bdd5d0819985a5b195960521b6044820152606401610417565b50505060068301805461ff00191690555b6040805183151581526020810183905288918a917f0d76ffd141ac46f890948f652119b6697ab2c49311973169956a8a59e5e5aa85910160405180910390a35050505050505050565b60026020526000908152604090208054600182018054919291610d8790611f3f565b80601f0160208091040260200160405190810160405280929190818152602001828054610db390611f3f565b8015610e005780601f10610dd557610100808354040283529160200191610e00565b820191906000526020600020905b815481529060010190602001808311610de357829003601f168201915b5050505060028301546003909301549192916001600160a01b0381169150600160a01b900460ff1685565b6000825111610e6c5760405162461bcd60e51b815260206004820152600d60248201526c13985b59481c995c5d5a5c9959609a1b6044820152606401610417565b60008111610eb05760405162461bcd60e51b815260206004820152601160248201527005072696365206d757374206265203e203607c1b6044820152606401610417565b6001806000828254610ec29190611ed4565b90915550506040805160a081018252600180548083526020808401878152848601879052336060860152608085018490526000928352600290915293902082518155925191929190820190610f179082611fc8565b50604082015160028201556060820151600390910180546080909301511515600160a01b026001600160a81b03199093166001600160a01b0390921691909117919091179055610f6633611a1a565b336001600160a01b03166001547f12f74df6387ef2d51265f7b8c12c28c83ba3a6a78ad217f3846ec9c2b1fad92f8484604051610fa4929190612088565b60405180910390a35050565b606060046000838152602001908152602001600020805480602002602001604051908101604052809291908181526020016000905b8282101561110e5760008481526020908190206040805161010081018252600786029092018054835260018101549383019390935260028301546001600160a01b03169082015260038201805491929160608401919061104490611f3f565b80601f016020809104026020016040519081016040528092919081815260200182805461107090611f3f565b80156110bd5780601f10611092576101008083540402835291602001916110bd565b820191906000526020600020905b8154815290600101906020018083116110a057829003601f168201915b505050918352505060048201546020808301919091526005830154604083015260069092015460ff808216151560608401526101009091041615156080909101529082526001929092019101610fe5565b505050509050919050565b6000828152600260205260409020600301548290600160a01b900460ff166111535760405162461bcd60e51b815260040161041790611e78565b60013360009081526020819052604090205460ff16600181111561117957611179611c89565b036111be5760405162461bcd60e51b815260206004820152601560248201527453656c6c6572732063616e6e6f742072657669657760581b6044820152606401610417565b600083815260036020908152604080832033845290915290205460ff166112275760405162461bcd60e51b815260206004820152601f60248201527f4f6e6c79207665726966696564206275796572732063616e20726576696577006044820152606401610417565b600034116112685760405162461bcd60e51b815260206004820152600e60248201526d14dd185ad9481c995c5d5a5c995960921b6044820152606401610417565b60008251116112ac5760405162461bcd60e51b815260206004820152601060248201526f10dbdb9d195b9d081c995c5d5a5c995960821b6044820152606401610417565b600083815260046020526040812080549091906112ca906001611ed4565b604080516101008101825282815260208082018981523393830193845260608301898152346080850152600060a0850181905260c0850181905260e08501819052885460018082018b558a835294909120855160079092020190815591519282019290925592516002840180546001600160a01b0319166001600160a01b03909216919091179055519293509160038201906113669082611fc8565b506080820151600482015560a0820151600582015560c08201516006909101805460e09093015115156101000261ff00199215159290921661ffff19909316929092171790556040513390869083907f07f64442284e5ab7aa1b873398d2f2863b01f2568a1bc98ecf26e7331bcb52b7906113e49034815260200190565b60405180910390a45050505050565b6000838152600260205260409020600301548390600160a01b900460ff1661142d5760405162461bcd60e51b815260040161041790611e78565b6000341161146e5760405162461bcd60e51b815260206004820152600e60248201526d14dd185ad9481c995c5d5a5c995960921b6044820152606401610417565b6040805160208082018790528183018690528251808303840181526060909201835281519181019190912060008181526006909252919020805460ff166114e65760405162461bcd60e51b815260206004820152600c60248201526b4e6f206368616c6c656e676560a01b6044820152606401610417565b806005015442106115285760405162461bcd60e51b815260206004820152600c60248201526b159bdd1a5b99c8195b99195960a21b6044820152606401610417565b33600090815260088201602052604090205460ff161561157a5760405162461bcd60e51b815260206004820152600d60248201526c105b1c9958591e481d9bdd1959609a1b6044820152606401610417565b3360009081526008820160209081526040808320805460ff1990811660011790915560098501835281842080548915801591909316179055600a850190925290912034905561160857348160060160008282546115d79190611ed4565b9091555050600b81018054600181018255600091825260209091200180546001600160a01b03191633179055611649565b3481600701600082825461161c9190611ed4565b9091555050600c81018054600181018255600091825260209091200180546001600160a01b031916331790555b6040805185151581523460208201523391879189917f5f52e8a68b1c0e1aa69d06ad12bd992d39f39bf259e5422940095320c8a3572d91015b60405180910390a4505050505050565b6000828152600260205260409020600301548290600160a01b900460ff166116cc5760405162461bcd60e51b815260040161041790611e78565b60008381526004602052604081208054849081106116ec576116ec611ea8565b906000526020600020906007020190508060060160019054906101000a900460ff16156117545760405162461bcd60e51b815260206004820152601660248201527514995d9a595dc8185b1c9958591e481c995b5bdd995960521b6044820152606401610417565b600681015460ff161561179e5760405162461bcd60e51b8152602060048201526012602482015271105b1c9958591e4818da185b1b195b99d95960721b6044820152606401610417565b806004015434116117f15760405162461bcd60e51b815260206004820152601e60248201527f5374616b65206d7573742065786365656420726576696577207374616b6500006044820152606401610417565b6040805160208082018790528183018690528251808303840181526060909201835281519181019190912060008181526006909252919020805460ff161561186e5760405162461bcd60e51b815260206004820152601060248201526f4368616c6c656e67652065786973747360801b6044820152606401610417565b805460ff1916600190811782558101869055600281018590556003810180546001600160a01b031916331790553460048201556118ac426078611ed4565b60058201908155600060068084018290556007840191909155600d8301805460ff1990811690915590850180549091166001179055546040513391879189917f32cc2fc3fee114bb4ccecb698afd2fe983ba642b804ffbd0c95bd441da1346479161168291348252602082015260400190565b6004602052816000526040600020818154811061193b57600080fd5b600091825260209091206007909102018054600182015460028301546003840180549396509194506001600160a01b0316929161197790611f3f565b80601f01602080910402602001604051908101604052809291908181526020018280546119a390611f3f565b80156119f05780601f106119c5576101008083540402835291602001916119f0565b820191906000526020600020905b8154815290600101906020018083116119d357829003601f168201915b50505050600483015460058401546006909401549293909290915060ff8082169161010090041688565b60016001600160a01b03821660009081526020819052604090205460ff166001811115611a4957611a49611c89565b14611a72576001600160a01b0381166000908152602081905260409020805460ff191660011790555b50565b60008060408385031215611a8857600080fd5b50508035926020909101359150565b600060208284031215611aa957600080fd5b5035919050565b80356001600160a01b0381168114611ac757600080fd5b919050565b60008060408385031215611adf57600080fd5b82359150611aef60208401611ab0565b90509250929050565b6000815180845260005b81811015611b1e57602081850181015186830182015201611b02565b506000602082860101526020601f19601f83011685010191505092915050565b85815260a060208201526000611b5760a0830187611af8565b6040830195909552506001600160a01b03929092166060830152151560809091015292915050565b634e487b7160e01b600052604160045260246000fd5b600082601f830112611ba657600080fd5b813567ffffffffffffffff80821115611bc157611bc1611b7f565b604051601f8301601f19908116603f01168101908282118183101715611be957611be9611b7f565b81604052838152866020858801011115611c0257600080fd5b836020870160208301376000602085830101528094505050505092915050565b60008060408385031215611c3557600080fd5b823567ffffffffffffffff811115611c4c57600080fd5b611c5885828601611b95565b95602094909401359450505050565b600060208284031215611c7957600080fd5b611c8282611ab0565b9392505050565b634e487b7160e01b600052602160045260246000fd5b6020810160028310611cc157634e487b7160e01b600052602160045260246000fd5b91905290565b60006020808301818452808551808352604092508286019150828160051b87010184880160005b83811015611d8957888303603f190185528151805184528781015188850152868101516001600160a01b0316878501526060808201516101008287018190529190611d3b83880182611af8565b6080858101519089015260a0808601519089015260c08086015115159089015260e094850151801515868a0152949093509150611d759050565b509588019593505090860190600101611cee565b509098975050505050505050565b60008060408385031215611daa57600080fd5b82359150602083013567ffffffffffffffff811115611dc857600080fd5b611dd485828601611b95565b9150509250929050565b600080600060608486031215611df357600080fd5b833592506020840135915060408401358015158114611e1157600080fd5b809150509250925092565b888152602081018890526001600160a01b038716604082015261010060608201819052600090611e4e83820189611af8565b6080840197909752505060a081019390935290151560c0830152151560e090910152949350505050565b602080825260169082015275141c9bd91d58dd08191bd95cc81b9bdd08195e1a5cdd60521b604082015260600190565b634e487b7160e01b600052603260045260246000fd5b634e487b7160e01b600052601160045260246000fd5b80820180821115611ee757611ee7611ebe565b92915050565b8082028115828204841417611ee757611ee7611ebe565b600082611f2157634e487b7160e01b600052601260045260246000fd5b500490565b600060018201611f3857611f38611ebe565b5060010190565b600181811c90821680611f5357607f821691505b602082108103611f7357634e487b7160e01b600052602260045260246000fd5b50919050565b601f821115611fc357600081815260208120601f850160051c81016020861015611fa05750805b601f850160051c820191505b81811015611fbf57828155600101611fac565b5050505b505050565b815167ffffffffffffffff811115611fe257611fe2611b7f565b611ff681611ff08454611f3f565b84611f79565b602080601f83116001811461202b57600084156120135750858301515b600019600386901b1c1916600185901b178555611fbf565b600085815260208120601f198616915b8281101561205a5788860151825594840194600190910190840161203b565b50858210156120785787850151600019600388901b60f8161c191681555b5050505050600190811b01905550565b60408152600061209b6040830185611af8565b9050826020830152939250505056fea264697066735822122029728efb26d7f87249f274dd9992de91599c6c731d16c35be923250bdd42af2f64736f6c63430008110033",
  "immutableReferences": {},
  "source": "// SPDX-License-Identifier: MIT\r\npragma solidity ^0.8.17;\r\n\r\n/// @title Minimal blockchain review system with roles, verified purchase, helpful votes, and challenge voting\r\n/// @notice Includes single-vote-per-user and clear settlement with reward distribution\r\ncontract ReviewSystem {\r\n    // ---------- Roles ----------\r\n    enum Role { Customer, Seller }\r\n    mapping(address => Role) public roles;\r\n\r\n    // ---------- Products ----------\r\n    struct Product {\r\n        uint256 id;\r\n        string name;\r\n        uint256 price; // in wei\r\n        address payable seller;\r\n        bool exists;\r\n    }\r\n    uint256 public productCount;\r\n    mapping(uint256 => Product) public products;\r\n    // productId => buyer => purchased?\r\n    mapping(uint256 => mapping(address => bool)) public hasPurchased;\r\n\r\n    // ---------- Reviews ----------\r\n    struct Review {\r\n        uint256 id;\r\n        uint256 productId;\r\n        address reviewer;\r\n        string content;\r\n        uint256 stake;       // reviewer stake (held until challenge ends or can be withdrawn if no challenge)\r\n        uint256 helpfuls;    // count of helpful votes (off-chain analytics may also use events)\r\n        bool challenged;     // true once a challenge is opened\r\n        bool removed;        // set true if challenge-agree side wins (review deemed undesirable)\r\n    }\r\n    // productId => list of reviews\r\n    mapping(uint256 => Review[]) public productReviews;\r\n\r\n    // prevent multiple helpful scores from same user per review\r\n    // key = keccak256(productId, reviewIndex) => voter => given?\r\n    mapping(bytes32 => mapping(address => bool)) public helpfulGiven;\r\n\r\n    // ---------- Challenges & Voting ----------\r\n    struct Challenge {\r\n        bool exists;\r\n        uint256 productId;\r\n        uint256 reviewIndex;       // index in productReviews[productId]\r\n        address payable challenger;\r\n        uint256 challengerStake;\r\n\r\n        uint256 endTime;           // unix time, after which settlement is allowed\r\n\r\n        uint256 agreeStake;        // stake for \"agree\" (review is undesirable)\r\n        uint256 disagreeStake;     // stake for \"disagree\" (review stays)\r\n\r\n        // voting control\r\n        mapping(address => bool) hasVoted;   // one vote per user\r\n        mapping(address => bool) votedAgree; // side chosen\r\n        mapping(address => uint256) stakeByVoter;\r\n\r\n        address[] agreeVoters;\r\n        address[] disagreeVoters;\r\n\r\n        bool settled;\r\n    }\r\n    // key per challenge: keccak256(productId, reviewIndex)\r\n    mapping(bytes32 => Challenge) private challenges;\r\n\r\n    // ---------- Events ----------\r\n    event ProductListed(uint256 indexed id, string name, uint256 price, address indexed seller);\r\n    event ProductPurchased(uint256 indexed id, address indexed buyer);\r\n    event ReviewPosted(uint256 indexed id, uint256 indexed productId, address indexed reviewer, uint256 stake);\r\n    event HelpfulScore(uint256 indexed productId, uint256 indexed reviewIndex, address indexed voter);\r\n    event ReviewChallenged(uint256 indexed productId, uint256 indexed reviewIndex, address indexed challenger, uint256 stake, uint256 endTime);\r\n    event ReviewVoted(uint256 indexed productId, uint256 indexed reviewIndex, address indexed voter, bool agree, uint256 stake);\r\n    event ChallengeSettled(uint256 indexed productId, uint256 indexed reviewIndex, bool agreeWon, uint256 totalPayout);\r\n\r\n    // ---------- Modifiers ----------\r\n    modifier productExists(uint256 _pid) {\r\n        require(products[_pid].exists, \"Product does not exist\");\r\n        _;\r\n    }\r\n\r\n    // ---------- Role Logic ----------\r\n    function _ensureSeller(address user) internal {\r\n        if (roles[user] != Role.Seller) {\r\n            roles[user] = Role.Seller;\r\n        }\r\n    }\r\n\r\n    // ---------- Product ----------\r\n    function listProduct(string memory _name, uint256 _price) external {\r\n        require(bytes(_name).length > 0, \"Name required\");\r\n        require(_price > 0, \"Price must be > 0\");\r\n        productCount += 1;\r\n        products[productCount] = Product({\r\n            id: productCount,\r\n            name: _name,\r\n            price: _price,\r\n            seller: payable(msg.sender),\r\n            exists: true\r\n        });\r\n        _ensureSeller(msg.sender);\r\n        emit ProductListed(productCount, _name, _price, msg.sender);\r\n    }\r\n\r\n    function purchaseProduct(uint256 _id) external payable productExists(_id) {\r\n        Product storage p = products[_id];\r\n        require(msg.value == p.price, \"Incorrect price\");\r\n        hasPurchased[_id][msg.sender] = true;\r\n        // effects before interaction\r\n        address payable seller = p.seller;\r\n        uint256 amount = msg.value;\r\n        // interaction\r\n        (bool ok, ) = seller.call{value: amount}(\"\");\r\n        require(ok, \"Payment failed\");\r\n        emit ProductPurchased(_id, msg.sender);\r\n    }\r\n\r\n    // ---------- Reviews ----------\r\n    function postReview(uint256 _productId, string memory _content) external payable productExists(_productId) {\r\n        require(roles[msg.sender] != Role.Seller, \"Sellers cannot review\");\r\n        require(hasPurchased[_productId][msg.sender], \"Only verified buyers can review\");\r\n        require(msg.value > 0, \"Stake required\");\r\n        require(bytes(_content).length > 0, \"Content required\");\r\n\r\n        Review[] storage list = productReviews[_productId];\r\n        uint256 newId = list.length + 1;\r\n        list.push(Review({\r\n            id: newId,\r\n            productId: _productId,\r\n            reviewer: msg.sender,\r\n            content: _content,\r\n            stake: msg.value,\r\n            helpfuls: 0,\r\n            challenged: false,\r\n            removed: false\r\n        }));\r\n        emit ReviewPosted(newId, _productId, msg.sender, msg.value);\r\n    }\r\n\r\n    function giveHelpfulScore(uint256 _productId, uint256 _reviewIndex) external productExists(_productId) {\r\n        Review storage r = productReviews[_productId][_reviewIndex];\r\n        bytes32 key = keccak256(abi.encodePacked(_productId, _reviewIndex));\r\n        require(!helpfulGiven[key][msg.sender], \"Already marked helpful\");\r\n        helpfulGiven[key][msg.sender] = true;\r\n        r.helpfuls += 1;\r\n        emit HelpfulScore(_productId, _reviewIndex, msg.sender);\r\n    }\r\n\r\n    // ---------- Challenge + Voting ----------\r\n    function challengeReview(uint256 _productId, uint256 _reviewIndex) external payable productExists(_productId) {\r\n        Review storage r = productReviews[_productId][_reviewIndex];\r\n        require(!r.removed, \"Review already removed\");\r\n        require(!r.challenged, \"Already challenged\");\r\n        require(msg.value > r.stake, \"Stake must exceed review stake\");\r\n\r\n        bytes32 key = keccak256(abi.encodePacked(_productId, _reviewIndex));\r\n        Challenge storage c = challenges[key];\r\n        require(!c.exists, \"Challenge exists\");\r\n\r\n        c.exists = true;\r\n        c.productId = _productId;\r\n        c.reviewIndex = _reviewIndex;\r\n        c.challenger = payable(msg.sender);\r\n        c.challengerStake = msg.value;\r\n        c.endTime = block.timestamp + 2 minutes;\r\n        c.agreeStake = 0;\r\n        c.disagreeStake = 0;\r\n        c.settled = false;\r\n\r\n        r.challenged = true;\r\n\r\n        emit ReviewChallenged(_productId, _reviewIndex, msg.sender, msg.value, c.endTime);\r\n    }\r\n\r\n    function voteOnChallenge(uint256 _productId, uint256 _reviewIndex, bool agree) external payable productExists(_productId) {\r\n        require(msg.value > 0, \"Stake required\");\r\n        bytes32 key = keccak256(abi.encodePacked(_productId, _reviewIndex));\r\n        Challenge storage c = challenges[key];\r\n        require(c.exists, \"No challenge\");\r\n        require(block.timestamp < c.endTime, \"Voting ended\");\r\n        require(!c.hasVoted[msg.sender], \"Already voted\");\r\n\r\n        c.hasVoted[msg.sender] = true;\r\n        c.votedAgree[msg.sender] = agree;\r\n        c.stakeByVoter[msg.sender] = msg.value;\r\n\r\n        if (agree) {\r\n            c.agreeStake += msg.value;\r\n            c.agreeVoters.push(msg.sender);\r\n        } else {\r\n            c.disagreeStake += msg.value;\r\n            c.disagreeVoters.push(msg.sender);\r\n        }\r\n\r\n        emit ReviewVoted(_productId, _reviewIndex, msg.sender, agree, msg.value);\r\n    }\r\n\r\n    /// @notice Ends a challenge, decides winner, distributes stakes\r\n    /// agree side wins  => review.removed = true, winners: challenger + agree voters share (review stake + disagree stake)\r\n    /// disagree side wins => review kept, winners: reviewer + disagree voters share (challenger stake + agree stake)\r\n    function finalizeChallenge(uint256 _productId, uint256 _reviewIndex) external productExists(_productId) {\r\n        bytes32 key = keccak256(abi.encodePacked(_productId, _reviewIndex));\r\n        Challenge storage c = challenges[key];\r\n        require(c.exists, \"No challenge\");\r\n        require(!c.settled, \"Already settled\");\r\n        require(block.timestamp >= c.endTime, \"Too early\");\r\n\r\n        Review storage r = productReviews[_productId][_reviewIndex];\r\n\r\n        // Determine winner\r\n        bool agreeWon = (c.agreeStake >= c.disagreeStake);\r\n\r\n        // Mark settled before transfers (checks-effects-interactions)\r\n        c.settled = true;\r\n\r\n        uint256 pool;\r\n        if (agreeWon) {\r\n            // agree winners: challenger + agree voters\r\n            // losers: reviewer stake + disagree stake -> pool for winners\r\n            pool = r.stake + c.disagreeStake;\r\n\r\n            // pay back principal + proportional share to agree voters\r\n            uint256 totalWinningStake = c.challengerStake + c.agreeStake;\r\n            for (uint256 i = 0; i < c.agreeVoters.length; i++) {\r\n                address payable v = payable(c.agreeVoters[i]);\r\n                uint256 st = c.stakeByVoter[v];\r\n                uint256 share = (totalWinningStake == 0) ? 0 : (pool * st) / totalWinningStake;\r\n                (bool ok1, ) = v.call{value: st + share}(\"\");\r\n                require(ok1, \"Agree voter payout failed\");\r\n            }\r\n            // challenger gets back stake + proportional share\r\n            uint256 chalShare = (totalWinningStake == 0) ? 0 : (pool * c.challengerStake) / totalWinningStake;\r\n            (bool ok2, ) = c.challenger.call{value: c.challengerStake + chalShare}(\"\");\r\n            require(ok2, \"Challenger payout failed\");\r\n\r\n            // reviewer loses stake, review removed\r\n            r.removed = true;\r\n        } else {\r\n            // disagree winners: reviewer + disagree voters\r\n            // losers: challenger stake + agree stake -> pool for winners\r\n            pool = c.challengerStake + c.agreeStake;\r\n\r\n            // pay back principal + proportional share to disagree voters\r\n            uint256 totalWinningStake = r.stake + c.disagreeStake;\r\n            for (uint256 j = 0; j < c.disagreeVoters.length; j++) {\r\n                address payable v2 = payable(c.disagreeVoters[j]);\r\n                uint256 st2 = c.stakeByVoter[v2];\r\n                uint256 share2 = (totalWinningStake == 0) ? 0 : (pool * st2) / totalWinningStake;\r\n                (bool ok3, ) = v2.call{value: st2 + share2}(\"\");\r\n                require(ok3, \"Disagree voter payout failed\");\r\n            }\r\n\r\n            // reviewer gets back stake + proportional share\r\n            uint256 reviewerShare = (totalWinningStake == 0) ? 0 : (pool * r.stake) / totalWinningStake;\r\n            (bool ok4, ) = payable(r.reviewer).call{value: r.stake + reviewerShare}(\"\");\r\n            require(ok4, \"Reviewer payout failed\");\r\n\r\n            // review stays\r\n            r.removed = false;\r\n        }\r\n\r\n        emit ChallengeSettled(_productId, _reviewIndex, agreeWon, pool);\r\n    }\r\n\r\n    // ---------- Read helpers for UI ----------\r\n    function getReviews(uint256 _productId) external view returns (Review[] memory) {\r\n        return productReviews[_productId];\r\n    }\r\n\r\n    function getChallenge(uint256 _productId, uint256 _reviewIndex)\r\n        external\r\n        view\r\n        returns (bool exists, uint256 endTime, uint256 agreeStake, uint256 disagreeStake, bool settled)\r\n    {\r\n        bytes32 key = keccak256(abi.encodePacked(_productId, _reviewIndex));\r\n        Challenge storage c = challenges[key];\r\n        return (c.exists, c.endTime, c.agreeStake, c.disagreeStake, c.settled);\r\n    }\r\n}\r\n",
  "sourcePath": "C:\\scratchproj\\project2\\scratchproj\\contracts\\ReviewSystem.sol",
  "compiler": {
    "name": "solc",
    "version": "0.8.17+commit.8df45f5f.Emscripten.clang"
  },
  "schemaVersion": "3.4.11",
  "updatedAt": "2025-11-08T06:18:02.058Z",
  "networkType": "ethereum",
  "devdoc": {
    "kind": "dev",
    "methods": {},
    "title": "Minimal blockchain review system with roles, verified purchase, helpful votes, and challenge voting",
    "version": 1
  },
  "userdoc": {
    "kind": "user",
    "methods": {
      "finalizeChallenge(uint256,uint256)": {
        "notice": "Ends a challenge, decides winner, distributes stakes agree side wins  => review.removed = true, winners: challenger + agree voters share (review stake + disagree stake) disagree side wins => review kept, winners: reviewer + disagree voters share (challenger stake + agree stake)"
      }
    },
    "notice": "Includes single-vote-per-user and clear settlement with reward distribution",
    "version": 1
  }
}